:020000040800F2
:10000000503000209901000809140008C70C0008AE
:1000100005140008970B0008AB1C00080000000046
:1000200000000000000000000000000001010008C6
:100030009B0B00080000000045010008391700086C
:10004000BD1C0008B3010008B3010008B30100089B
:10005000B3010008B3010008B3010008B3010008B0
:10006000B3010008B3010008B3010008B3010008A0
:10007000B3010008B3010008B3010008B301000890
:10008000B3010008B3010008B3010008B301000880
:10009000B3010008B3010008B30100089D0B00087C
:1000A000B3010008B3010008B3010008B301000860
:1000B000B3010008A117000829180008B3010008BF
:1000C000B3010008B3010008B3010008B301000840
:1000D000B3010008CD1A0008B3010008B3010008FD
:1000E000B3010008B3010008B3010008DFF80CD029
:1000F00000F066FC004800472D3300085030002017
:10010000224B19680868B0E8F00F80F30988BFF344
:100110006F8F4FF0000080F311884EF00D0E704786
:100120000000000006480068006880F3088862B696
:1001300061B6BFF34F8FBFF36F8F00DF00BF00BF0B
:1001400008ED00E0EFF30980BFF36F8F0F4B1A68E3
:1001500020E9F00F106008B54FF0500080F31188CF
:10016000BFF34F8FBFF36F8F04F00CFE4FF0000012
:1001700080F31188BDE8084019680868B0E8F00FFE
:1001800080F30988BFF36F8F704700BF1400002011
:10019000EFF3058070470000064880470648004797
:1001A000FEE7FEE7FEE7FEE7FEE7FEE7FEE7FEE727
:1001B000FEE7FEE741170008ED00000840EA0103F2
:1001C0009B0703D009E008C9121F08C0042AFAD20D
:1001D00003E011F8013B00F8013B521EF9D27047D1
:1001E000F0B480EA0102D40F4200B2EB410F02D218
:1001F0000246084611464A0042D0C30DDDB2C1F3A3
:10020000C752AD1A202D35DAC1F3160141F40002B0
:1002100004B15242C5F1200602FA06F12A41104407
:10022000B3EBD05F23D0C4B1012DA0EBC35009DCE8
:10023000F0BC4FF0004202EAC352DBB200F500000E
:1002400000F0ABBA400000F1807000EBC350A0F1A9
:10025000807040EAD170490009E0490841EAC07164
:10026000A0EBC35000F50000400800EBC350F0BC09
:1002700000F08ABA6142012202EB4101001BF6E75D
:10028000F0BC704781F00041AAE780F00040A7E78A
:1002900080EA010210B502F00043400022D04A007B
:1002A0001FD0010E01EB1261C0F35600C2F35602DB
:1002B00040F4000042F40002A0FB022000047F3959
:1002C000140400D0401C50EA124001D44000491EE2
:1002D000C2B20C0604EBD010401C4008802A02D0A9
:1002E00003E0002010BD20F00100002900DA00200A
:1002F000184310BD30B480EA010202F0004530F02E
:10030000004221F0004013D090B1C30DD40DC2F3D0
:100310001601C0F31600E41A41F4000140F4000293
:100320007D34914201D3641C00E04900002C02DAC4
:1003300030BC002070474FF400000023914201D3ED
:10034000891A034340084FEA4101F7D151B1914264
:1003500002D14FF0004105E002D24FF0010101E06F
:100360006FF0010103EBC450284430BC00F00CBA1C
:100370002DE9FE4F804681EA0300C00F0C46009035
:1003800021F0004123F00045B8EB0200A94105D25D
:100390004046214690461C460B46024623F000404C
:1003A000104347D0270DC7F30A00C3F30A51029048
:1003B000401A019040286BDAC3F3130040F4801B0D
:1003C0000098924620B10023D2EB030A63EB0B0B9B
:1003D00001985946C0F14002504600F0B4F9064673
:1003E0000D4650465946019A00F0BCF910EB080042
:1003F0006141002487EA115284EAE7731A4340D02E
:10040000009A62B3019A012A4FEA075215DC001BD9
:1004100061EB02014FF0004202EA0752CDE90042CF
:10042000001C41F5801132462B4600F0F3F903B071
:10043000BDE8F08F40462146F9E7001B61EB020161
:10044000001C41F5801300185B412018A2F500172D
:1004500047EB030140EAD570B6196D4111E06D0814
:100460004FEA360645EAC0754FEA0752001B61EBBA
:100470000201001C41F5801149084FEA30000019C3
:10048000514132462B4603B0BDE8F04F00F0B3B9FE
:100490000098012240000023D0EB020263EBE073DE
:1004A000009821464FEAE074B8EB000061EB0401CC
:1004B000E9E783F000435BE781F0004158E72DE96D
:1004C000FE4F81EA030404F0004421F0004100944F
:1004D0004FF0000B23F0004350EA01045ED052EAD3
:1004E00003045BD0C3F30A54C1F30A552C44A4F2AD
:1004F000F3340194A0FB0254C1F3130141F48011C1
:10050000C3F3130343F4801301FB024400FB034EC7
:10051000840A970A44EA815447EA8357A4FB076890
:1005200002958D0A05FB07854FEA932C04FB0C54BA
:100530002705029D4FEA065847EA1637B5EB08052E
:100540006EEB070C870E920E47EA811742EA831280
:10055000A7FB0201B6EB0B0164EB00042B0D43EA91
:100560000C335E1844EB1C50DA465146E7FB02019F
:10057000C5F313044FEA0B3343EA14534FEA043232
:10058000019C43EA0603A4F10C040294009CCDE90B
:1005900000B400F03FF903B0BDE8F08F0020014641
:1005A000F9E7C10F80EAE0700844CA0796230021EA
:1005B00000F0F3B896230022114600F0EEB820F0C8
:1005C0000040C10DC0F3160040F400007F2901DA9D
:1005D00000207047962903DCC1F19601C84070479E
:1005E00096398840704700F0004230F000400AD051
:1005F000C10D01F56071C0F3160042EA0151C20855
:1006000040071143704700200146704730B5041E73
:1006100071F1000404DB4FF00044404264EB01013F
:10062000141E73F1000405DB1C464FF000435242D8
:1006300063EB04038B4208BF824230BD30B5041E19
:1006400071F1000404DB4FF00044404264EB01010F
:10065000141E73F1000405DB1C464FF000435242A8
:1006600063EB0403994208BF904230BD01F00043A0
:1006700030B421F0004150EA010206D00A0DA2F583
:100680006072C1F31301002A02DC30BC0020704705
:10069000440F44EAC104C100E01830BC00EBC25072
:1006A00000F072B8002801DBC0F10040002901DB36
:1006B000C1F100418842704730B50B460146002029
:1006C0002022012409E021FA02F59D4205D303FA14
:1006D00002F5491B04FA02F52844151EA2F1010295
:1006E000F1DC30BD2DE9F05F0546002092469B46C7
:1006F00088460646814640241BE028464146474638
:10070000224600F06FF953465A46C01A914110D361
:1007100011461846224600F016F82D1A67EB01081C
:100720004F4622460120002100F00DF817EB00098A
:100730004E41201EA4F10104DFDC484631462A4622
:100740004346BDE8F09F202A04DB203A00FA02F17C
:10075000002070479140C2F1200320FA03F31943AF
:1007600090407047202A06DBCB17203A41FA02F06E
:1007700043EAE07306E041FA02F3D040C2F12002FE
:1007800091400843194670470029A8BF7047401C94
:10079000490008BF20F00100704710B4B0FA80FC97
:1007A00000FA0CF050EA010404BF10BC704749B1D4
:1007B000CCF1200421FA04F411FA0CF118BF012144
:1007C00021430843A3EB0C01CB1D4FEA00614FEA24
:1007D000102042BF002010BC704700EBC3501044F3
:1007E0000029A4BF10BC7047401C490008BF20F07E
:1007F000010010BC704710B5141E73F1000408DA34
:10080000401C41F1000192185B411A4301D120F0D4
:10081000010010BD2DE9F04D92469B4611B1B1FA91
:1008200081F202E0B0FA80F220329046FFF78BFFAF
:1008300004460F4640EA0A0041EA0B0153465A4675
:10084000084313D0114653EA010019D0C8F1400201
:10085000504600F0C7F805460E46504659464246F7
:10086000FFF771FF084305D0012004E02046394618
:10087000BDE8F08D0020054346EAE0762C4337437F
:100880000A986305E40AA0EB08000022FD0A44EA86
:1008900047540A3002D500200146E9E70105101946
:1008A0006941DDE9084500196941BDE8F04DA2E75D
:1008B0002DE9F04D81EA030404F0004B21F00045DE
:1008C00014464FF0000A23F0004150EA050220D000
:1008D00054EA01021DD0C5F30A570246C5F31303BB
:1008E000C1F31300C1F30A5640F4801543F480139A
:1008F000A7EB0608101BD64608F2FD3873EB05007F
:1009000002D308F1010801E092185B41B8F1000F31
:1009100003DA00200146BDE8F08D00204FF480117D
:10092000064684460EE0171B73EB050705D3121B22
:1009300063EB050306434CEA010C49084FEA30001B
:1009400092185B4150EA0107EDD152EA030012D040
:1009500082EA040083EA0501084305D0101BAB417D
:1009600006D20122002306E000224FF0004302E0FD
:100970006FF0010253101AEB06004CEB085110EB1C
:100980000A0041EB0B01BDE8F04DFFF734BFC1F3A6
:100990000A52C1F3130140F2FF3341F480119A422D
:1009A00002DA00200146704740F233439A42A2F235
:1009B000334202DC524200F015B8FFF7C4BE00001B
:1009C000064C074D06E0E06840F0010394E807009C
:1009D00098471034AC42F6D3FFF78CFB64930008C1
:1009E00084930008202A04DB203A21FA02F0002137
:1009F000704721FA02F3D040C2F12002914008432F
:100A000019467047CA430260704721B1826842F0BC
:100A10000102826003E0826822F001028260704776
:100A2000014600208A6802F004020AB1012000E0B9
:100A3000002070470146C86C80B270470246002013
:100A400013680B400BB1012000E000207047014605
:100A500000208A6802F008020AB1012000E00020AC
:100A60007047000030B502460020002350680F4C4C
:100A700020400D790C6844EA0524204350609068BA
:100A80000B4C2040D1E902542C434D7944EA4504F3
:100A900020439060D06A20F470000C7C641EE4B2A5
:100AA000234340EA0350D06230BD0000FFFEF0FF58
:100AB000FDF7F1FFF0B504460D4600200021092D99
:100AC00011DDE068A5F10A0606EB4607072606FADF
:100AD00007F18843A5F10A0606EB460603FA06F17C
:100AE0000843E0600CE0206905EB4507072606FA9D
:100AF00007F1884305EB450603FA06F10843206138
:100B0000072A0FDA606B561E06EB86071F2606FAC9
:100B100007F18843561E06EB860605FA06F10843E0
:100B2000606322E00D2A0FDA206BD61F06EB8607E2
:100B30001F2606FA07F18843D61F06EB860605FA3C
:100B400006F10843206310E0E06AA2F10D0606EB0F
:100B500086071F2606FA07F18843A2F10D0606EB69
:100B6000860605FA06F10843E062F0BD816841F0AF
:100B700008018160704721B1826842F4A00282605E
:100B800003E0826822F4A00282607047816841F02D
:100B900004018160704700BFFEE7704770472DE990
:100BA000F0410246002500260020002300240027F3
:100BB00091F803C00CF00F0591F803C00CF0100C75
:100BC000BCF1000F03D091F802C04CEA050591F882
:100BD00000C0BCF1000F31D0146800202BE04FF0B2
:100BE000010C0CFA00F3B1F800C00CEA03069E42B7
:100BF00020D183004FF00F0C0CFA03F7BC4305FA29
:100C000003FC4CEA040491F803C0BCF1280F06D1A0
:100C10004FF0010C0CFA00FCC2F814C00AE091F885
:100C200003C0BCF1480F05D14FF0010C0CFA00FCD9
:100C3000C2F810C0401C0828D1D31460B1F800C01D
:100C4000BCF1FF0F34DD546800202EE000F1080CE9
:100C50004FF0010808FA0CF3B1F800C00CEA0306E3
:100C60009E4221D183004FF00F0C0CFA03F7BC43D6
:100C700005FA03FC4CEA040491F803C0BCF1280F08
:100C800005D100F1080C08FA0CF8C2F8148091F8AC
:100C900003C0BCF1480F07D100F1080C4FF0010868
:100CA00008FA0CF8C2F81080401C0828CED3546013
:100CB000BDE8F0810246002093680B400BB1012093
:100CC00000E00020704700BFFEE721B1028842F437
:100CD0008062028004E002884FF6FF331A400280EF
:100CE000704770B502460024002500230020958A35
:100CF000138B1B0445EA030626F07F4404EA010631
:100D00008E4201D1012000E0002070BD002221F0C0
:100D10007F42D3438382704721B1028842F00102AF
:100D2000028004E002884FF6FE731A40028070478A
:100D300070B505460E4614464FF4204065490860DC
:100D400009E064490868411E624A116018B9092027
:100D500000F032FB70BD4FF400315F4800F05CFAE8
:100D60000028EED101215C4800F03EFA4FF480509B
:100D70005849086009E057490868411E554A116002
:100D800018B90A2000F018FBE4E754495248FFF76D
:100D9000A8FF0028EFD05248017800224E4800F00A
:100DA00000FB4FF480504B49086009E0494908684E
:100DB000411E484A116018B90B2000F0FDFAC9E73E
:100DC00048494548FFF78DFF0028EFD001214248F0
:100DD000FFF7A2FF3146404800F0ECFA4FF4805094
:100DE0003C49086009E03B490868411E394A1160E6
:100DF00018B90C2000F0E0FAACE73A49891C3648F3
:100E0000FFF76FFF0028EED00121334800F0ECF926
:100E10004FF480502F49086009E02E490868411EB0
:100E20002C4A116018B90D2000F0C6FA92E72B4940
:100E30002948FFF756FF0028EFD029480178012202
:100E4000254800F0AEFA4FF480502249086009E0CE
:100E500020490868411E1F4A116018B90E2000F091
:100E6000ABFA77E71D49491C1B48FFF73AFF0028FA
:100E7000EED026E0012C07D100211748FFF725FF0F
:100E80000121154800F0BCF94FF4204011490860D9
:100E900009E010490868411E0E4A116018B9032084
:100EA00000F08AFA56E70D493F310B48FFF719FF6A
:100EB0000028EED0084800F070FA28706D1C601E03
:100EC00084B2002CD6D101210348FFF7FEFE012099
:100ED00040E70000CC000020005400400100030067
:100EE000C8000020820007002DE9F04707460D46A4
:100EF00014464FF00008C146C24600262846E917AE
:100F000005EB5171C910A5EBC10101F0FF0ACAF14F
:100F10000800C6B22046E11704EB5171C1F3C708BF
:100F2000E11704EB5171C910A4EBC10101F0FF09F5
:100F3000BAF1000F28D1B8F1000F07D14A4629466F
:100F4000384600F073F800F00BF960E00AE0082280
:100F50002946384600F06AF800F002F905F1080069
:100F6000C5B20837B8F10000A8F1010101F0FF088F
:100F7000EDD1B9F1000F4AD04A462946384600F073
:100F800055F800F0EDF842E0B8F1000F07D14A46FD
:100F90002946384600F04AF800F0E2F837E0A01B96
:100FA00084B22046E11704EB5171C1F3C708E11781
:100FB00004EB5171C910A4EBC10101F0FF094EB15E
:100FC00032462946384600F031F800F0C9F8A81931
:100FD000C5B237440AE008222946384600F026F810
:100FE00000F0BEF805F10800C5B20837B8F10000FE
:100FF000A8F1010101F0FF08EDD1B9F1000F06D011
:101000004A462946384600F011F800F0A9F8BDE834
:10101000F087000010B500F0CDF800F091F9A020A5
:101020000149088010BD0000C800002070B50446CA
:101030000E4615464FF420404449086009E04349F4
:101040000868411E414A116018B9042000F0B4F943
:1010500070BD4FF400313E4800F0DEF80028EED1BC
:1010600001213B4800F0C0F84FF480503749086038
:1010700009E036490868411E344A116018B9052054
:1010800000F09AF9E4E733493148FFF72AFE0028D7
:10109000EFD03148017800222D4800F082F94FF45A
:1010A00080502A49086009E028490868411E274AFB
:1010B000116018B9062000F07FF9C9E727492448D4
:1010C000FFF70FFE0028EFD03146214800F072F9FB
:1010D0004FF480501D49086009E01C490868411E12
:1010E0001A4A116018B9072000F066F9B0E71B49E9
:1010F000891C1748FFF7F5FD0028EED01AE021788B
:10110000134800F057F9641C4FF480500F490860F1
:1011100009E00E490868411E0C4A116018B9082000
:1011200000F04AF994E70D49891C0948FFF7D9FDF9
:101130000028EED0281EA5F10101CDB2DFD101219A
:10114000034800F05DF8012082E70000CC00002099
:101150000054004001000300C80000208200070086
:1011600008B50020009000BF01210F4800F03CF8B6
:1011700014210D4800F006F900900C480178002277
:10118000094800F00EF91421074800F0FBF800F0C0
:1011900002000028E8D006490348FFF7B7FD012107
:1011A000014800F02DF808BD00540040C8000020A0
:1011B0000004001008B50121480500F075F901216F
:1011C000082000F081F9C020ADF8000003208DF860
:1011D00002001C208DF8030069460248FFF7DFFC7F
:1011E00008BD0000000C014021B1028842F4807269
:1011F000028004E002884FF6FF631A4002807047C5
:1012000021B1028842F40072028004E002884FF6A5
:10121000FF531A40028070470CB50246002000239D
:101220000193009300920B0F019321F07F41019BEA
:101230001BB1009B1433009303E0090C009B18338F
:101240000093009B1B680B400BB1012000E00020C5
:101250000CBD00002DE9F04385B004460D46002684
:10126000B1460427DFF8CC80A6884FF6C070064050
:10127000684600F039F9DDF808802F48B8FBF0F037
:101280001FFA80F946EA0906A68020884FF6FE710B
:101290000840208000262949286888420CD8286800
:1012A0004000B8FBF0F087B2042F00DA04273E4379
:1012B00009F10100208427E0E8884BF6FF7188429D
:1012C00006D1286800EB4000B8FBF0F087B209E0D7
:1012D000286800EBC00101EB0010B8FBF0F087B20A
:1012E00047F48047C7F30B0008B947F0010747F4FC
:1012F000004006434FF4967009FB00F04FF47A71FA
:1013000090FBF1F0401C2084A683208840F001006F
:10131000208026884FF6F5300640A8886989084362
:1013200006432680A88929890843208105B0BDE8A5
:10133000F083000000127A0040420F00A0860100F6
:101340001FB50020ADF804004BF6FF70ADF80600A5
:101350000A20ADF808004FF48060ADF80A000001E3
:10136000ADF80C000548009069460548FFF772FF8C
:1013700001210348FFF7D0FC1FBD0000801A0600C2
:101380000054004008B502460020009000920098EA
:10139000084400900098008808BD0146088AC0B241
:1013A000704712B141F0010102E04FF6FE7319409F
:1013B000018270470182704710B50446214602A0A1
:1013C00000F08AFC002010BD3C3C2D454550524F9A
:1013D0004D2D4552524F522D3E3E204932432068FA
:1013E000616420776169746564206D6F7265207433
:1013F000696D65216572726F72436F6465203D206F
:1014000025640A0000BFFEE77047000070B50021A8
:1014100000230F22C47804B3154C246804F4E0645C
:10142000C4F5E064210AC1F10403CA40447804FA17
:1014300003F184781440214309010E4C0678A1552C
:10144000047804F01F050124AC4005786D11AD004F
:1014500005F1E025C5F8004109E0047804F01F0516
:101460000124AC40044D0678761145F8264070BD45
:101470000CED00E000E400E080E100E002490143FF
:10148000024A1160704700000000FA050CED00E010
:1014900001460020034A506820F440400843506051
:1014A000704700000010024029B1064AD269024389
:1014B000044BDA6104E0034AD2698243014BDA61EA
:1014C000704700000010024029B1064A92690243A9
:1014D000044B9A6104E0034A92698243014B9A618A
:1014E000704700000010024030B5002100220024A7
:1014F00000232D4D6D6805F00C0121B1042905D0A4
:10150000082923D105E0294D056022E0274D05601B
:101510001FE0254D6D6805F47012234D6D6805F4CC
:101520008034022505EB92421CB9214D55430560DC
:101530000BE01D4D6D6805F400351DB11C4D554384
:10154000056002E0194D5543056002E0174D056046
:1015500000BF00BF144D6D6805F0F0010909154D7D
:101560006B5C0568DD4045600F4D6D6805F4E0611A
:10157000090A104D6B5C4568DD4085600A4D6D6859
:1015800005F46051C90A0B4D6B5C4568DD40C560D0
:10159000054D6D6805F44041890B074D6B5CC568CE
:1015A000B5FBF3F5056130BD0010024000127A0072
:1015B00000093D00000000201000002021B1028839
:1015C00042F04002028004E002884FF6BF731A40E6
:1015D000028070470246002013890B400BB10120A6
:1015E00000E0002070478181704710B5002202881A
:1015F00002F441520B884C8823438C882343CC88C7
:1016000023430C8923434C8923438C892343CC896E
:1016100023431A430280838B4FF2FF74234083835A
:101620000B8A038210BD10B500F002F810BD000057
:101630000CB50020019000903348006840F48030E1
:101640003149086000BF3048006800F40030009065
:101650000198401C0190009818B90198B0F5A06F4E
:10166000F1D12948006800F4003010B10120009049
:1016700001E0002000900098012843D12348006831
:1016800040F01000214908600846006820F003007F
:1016900008600846006840F0020008601A48406888
:1016A000194948600846406848600846406840F468
:1016B000806048600846406820F47C104860084616
:1016C000406840F4E81048600846006840F08070C8
:1016D000086000BF0C48006800F000700028F9D0D6
:1016E0000948406820F00300074948600846406800
:1016F00040F00200486000BF0348406800F00C0062
:101700000828F9D10CBD0000001002400020024062
:10171000042808D14FF0E021096941F004014FF09D
:10172000E022116107E04FF0E021096921F0040196
:101730004FF0E0221161704710B503F0FBFC10BDC3
:1017400010B51348006840F00100114908600846D0
:101750004068104908400E494860084600680E4934
:1017600008400B4908600846006820F480200860A3
:101770000846406820F4FE0048604FF41F0088606F
:10178000FFF751FF4FF000600449086010BD0000F2
:10179000001002400000FFF8FFFFF6FE08ED00E039
:1017A00070B501211A4800F0D0F808B31948006854
:1017B000FEF719FF0446184A184BFEF73FFF18D2F0
:1017C0000020174908601748D0F8AC0140B9012043
:1017D00013492431086000201249C1F8B00112E019
:1017E00001200F492431086000200E49C1F8B001E2
:1017F00009E001200A49086000200A49C1F8AC014B
:101800000749283108600121014800F095F870BDB2
:1018100000040040D00000209A9999999999E93FD5
:1018200088012142000021422DE9FC410221324879
:1018300000F082F8304800F082F8304908802E48E5
:1018400000F080F82E4908802E4801880088401C4E
:101850002C4A1080642947DA2848008800283DD0A7
:1018600026480088401CFEF79CFE05462448008858
:10187000401CFEF796FE06462349FEF709FD044686
:101880002946FEF737FD214908601C480088401CA6
:10189000FEF787FE05461E480088401CFEF781FEC5
:1018A000064631461B48FEF725FD04462946FEF74D
:1018B00021FD1949086008460068FEF794FE0446B9
:1018C0000D4612480068FEF78EFE064632460B466D
:1018D00012A0CDE9004500F0FFF90AE000200B4915
:1018E00008600D49086004E000220221024800F06F
:1018F0003DF8BDE8FC810000000800409400002095
:10190000960000209A0000200000C8429C000020A1
:10191000980000204054894CA00000206475747920
:101920003A25302E326625250909667265713A25F9
:10193000302E3266487A0A00CA4302827047014656
:10194000888E70470146088F704730B502460020E8
:1019500000230024158A05EA0103958905EA01049C
:1019600013B10CB1012000E0002030BD1AB1838911
:101970000B43838102E083898B438381704700009E
:101980001FB51F20A023802200210090084601F0EF
:1019900031F910201F214FF6FF733CA2CDE9001052
:1019A0000221082001F0A8FB10201F214FF6FF7331
:1019B0003AA2CDE900101621082001F09DFB10206D
:1019C0001F214FF6FF7337A2CDE9001016213020FA
:1019D00001F092FB10201F214FF6FF7332A2CDE9D8
:1019E00000102E21082001F087FB10201F214FF648
:1019F000FF732FA2CDE900102E21302001F07CFBD7
:101A000010201F214FF6FF732BA2CDE900101621E5
:101A1000562001F071FB10201F214FF6FF73562254
:101A2000CDE900102E21104601F068FA10201F2188
:101A30004FF6FF7321A2CDE900108821042001F0A8
:101A40005BFB0422002102A8FFF772F900208DF849
:101A50000C00022102A802F07FFB1B490860102045
:101A60001F214FF6FF7302AACDE9001088214C20F8
:101A700001F042FB10201F214FF6FF735622CDE9E3
:101A800000108821782001F039FA1FBDCAD2C4DACB
:101A9000D1CCCEEDB1A8BEAFC6F70000C5A8B6C880
:101AA0003A00000030000000B5E7D1B93A0000006C
:101AB000302E30300000000070706D00B5B1C7B03E
:101AC000E3D0D6B53A000000D800002010B540F2AF
:101AD0002551064800F025F838B1044800F0DCF83C
:101AE000C4B22146014802F0B1FC10BD00380140EB
:101AF00021B1828942F40052828104E082894DF64C
:101B0000FF731A408281704702460020B1F5007FC2
:101B100000D100BF13880B400BB1012000E0002072
:101B2000704770B50246002400230025002040F6CF
:101B30006A16B14200D100BFC1F3421501F01F0384
:101B4000012606FA03F3012D02D19689334006E0FF
:101B5000022D02D1168A334001E0968A33400C12DE
:101B6000012606FA04F41688344013B10CB10120A2
:101B700000E0002070BDF0B50346002400260025DB
:101B8000002040F66A17B94200D100BF1846C1F3E1
:101B9000421401F01F06012707FA06F5012C01D1B6
:101BA0000C3004E0022C01D1103000E014301AB1E6
:101BB00007682F43076002E00768AF430760F0BD86
:101BC0002DE9F04786B005460E460024A24600BF28
:101BD000A1460027B08900B100BF2F462C8A4CF6E1
:101BE000FF700440F08804432C82AC894EF6F31059
:101BF0000440B08831890843718908430443AC81AB
:101C0000AC8A4FF6FF400440B0890443AC8201A87F
:101C1000FFF76AFC1F48874202D1DDF810A001E0FF
:101C2000DDF80CA0A88900F4004040B10AEBCA001E
:101C300000EB0A1031684900B0FBF1F807E00AEB4D
:101C4000CA0000EB0A1031688900B0FBF1F864208B
:101C5000B8FBF0F004012009642101FB1089A88978
:101C600000F4004040B1322000EBC900B0FBF1F0BD
:101C700000F00700044308E0322000EB0910642163
:101C8000B0FBF1F000F00F0004432C8106B0BDE87A
:101C9000F08700000038014001468888C0F3080042
:101CA0007047C1F308028280704700BFFEE7000062
:101CB0000020014908607047082C004010B5FFF76C
:101CC000F7FF0448006808B9012000E0002001493E
:101CD000086010BDAC0121420FB4054B10B503A93B
:101CE000044A029800F0CAF810BC5DF814FB00002A
:101CF000D52A00088800002002E008C8121F08C189
:101D0000002AFAD170477047002001E001C1121F7C
:101D1000002AFBD1704700002DE9FF5FDDE90220BA
:101D2000010DDDF838B0024318D044F61050A1F28E
:101D3000FF3141430D140F98012820D0A5EB0B0073
:101D4000401C5FEA000A4FF00004474EDFF81C9188
:101D5000A046504616D5CAF1000728E00F98012486
:101D600043A2012808D0002100980F9BC0E9002160
:101D7000C0E90243BDE8FF9F6FEA0B01F4E7CBF136
:101D80000000DEE7074612E0F80707D02246334698
:101D900040464946FEF793FB804689462246334635
:101DA00010461946FEF78BFB04460E467F10002FA7
:101DB000EAD1DDE90201BAF1000F42464B4602DAF0
:101DC000FEF77DFB01E0FEF773FD04460E460022A0
:101DD000284BFEF733FC03D84FF0FF30014607E0F5
:101DE0000022254B20463146FEF7C2FAFEF7CFFD12
:101DF000102409E0002C0ADB0A220023FEF772FC03
:101E0000019B30321A55641E50EA0102F2D1641C63
:101E1000019AC4F1110314440F9A012A03D001223C
:101E200008430DD10AE0084304D000204FF0110B05
:101E30000F9080E7A3EB0B056D1E0DE05B4504DD05
:101E40004FF0000205F1010504E003DA4FF0000253
:101E5000A5F10105002AECD000980F99C0E90231E4
:101E6000C0E9004586E70000000024400000F03F84
:101E7000300000000000F0430000E03F2DE9FF4F7C
:101E800095B09B468946064600250FE2252877D166
:101E900000242746F84A0121059400E0044316F87F
:101EA000013F203B01FA03F01042F7D130782A2895
:101EB00011D06FF02F033078A0F13002092A16D824
:101EC000059A44F0020402EB820203EB4202104442
:101ED000761C0590EFE759F8042B0592002A03DAE7
:101EE000504244F40054059044F00204761C3078CB
:101EF0002E2816D116F8010F44F004042A280DD01C
:101F00006FF02F023078A0F13003092B09D807EBCE
:101F1000870302EB4303C718761CF3E759F8047BE9
:101F2000761C30786C280FD006DC4C2817D0682837
:101F30000DD06A2814D104E0742810D07A280FD16B
:101F40000DE044F400140AE044F4801401E044F489
:101F500040147278824202D104F58014761C761CFB
:101F6000307866280BD013DC582877D009DC00289D
:101F700075D04528F6D04628F4D047281AD19DE1DF
:101F800018E0632835D0642879D0652812D195E10E
:101F9000702873D008DC6728F1D069286FD06E28CC
:101FA0000DD06F2806D1B5E073282CD0752875D0D8
:101FB000782874D05A46179990476D1C75E1C4F380
:101FC0000250022809D003280DD0D9F800100428A7
:101FD0000DD00D6009F1040967E1D9F80010EA1786
:101FE000C1E90052F6E7D9F800100D80F2E70D7054
:101FF000F0E719F8041B8DF8001000208DF801009F
:10200000EA46012003E059F804AB4FF0FF306107C6
:102010004FF0000102D40DE008F101018846B942F9
:102020000FDA8045F8DB1AF808100029F4D108E02F
:1020300008F1010188468142FADB1AF808100029EC
:10204000F6D105985B46A0EB080721463846179A5B
:1020500000F094FA284400EB080507E04DE029E180
:102060000DE01AF8010B5A4617999047B8F101088C
:10207000F7D25B4621463846179A13E142E00A221E
:102080000092C4F302524FF0000A022A08D059F815
:1020900004CB032A4FEAEC710AD00DE029E02AE0D4
:1020A00009F1070121F00702F2E802C1914609E0B7
:1020B0000FFA8CFC4FEAEC71042A03D14FFA8CFC26
:1020C0004FEAEC71002907DA0A460021DCF1000C26
:1020D00061EB02012D2202E0220504D52B228DF8AE
:1020E0000420012203E0E20701D02022F7E7904616
:1020F00059E00A2102E010220DE010214FF0000A01
:1021000000910BE010224FF0000A44F0040408276D
:10211000009203E008224FF0000A0092C4F302523A
:10212000022A05D059F804CB0021032A08D009E07F
:1021300009F1070121F00702F2E802C1914605E02A
:102140001FFA8CFC042A01D10CF0FF0C4FF00008A0
:10215000220728D5702806D0009B83F0100353EA8D
:102160000A0305D00EE040228DF80420012208E089
:102170005CEA010206D030228DF804208DF80500BB
:1021800002229046009B83F0080353EA0A030AD117
:102190005CEA010201D1620705D530228DF80420E6
:1021A0004FF001087F1E582804D034A003900EA8D9
:1021B00002900DE036A0F9E753466046009AFEF71C
:1021C00091FA84460398825C0298401E0290027045
:1021D0005CEA0100F0D1029806A9081A00F1200A71
:1021E000600702D524F4803400E00127574502DD62
:1021F000A7EB0A0000E0002000EB0A010090059820
:102200004144401A0590E00306D45B462146179AE4
:10221000059800F0B3F90544002706E001A85A46E6
:10222000C05D179990476D1C7F1C4745F6DBE003A6
:102230000CD55B462146179A059800F09FF9054496
:1022400004E030205A46179990476D1C0099481EAB
:1022500000900029F5DC08E0029802995A460078BF
:10226000491C0291179990476D1CBAF10001AAF11F
:10227000010AF1DC65E10000092801003031323348
:1022800034353637383961626364656600000000B2
:10229000303132333435363738394142434445469C
:1022A0000000000000F058F90544761C3078002842
:1022B0007FF4ECAD19B02846BDE8F08F620700D47A
:1022C000062709F1070222F0070CFCE80223E14689
:1022D00003F000485FEA080C02D00FF2702C0DE00A
:1022E0005FEA045C02D50FF2682C07E05FEAC47C69
:1022F00002D00FF2602C01E0AFF2700C4FF0FF380B
:1023000023F00043CDF850C065280CD006DC4528EA
:1023100009D046281DD047283DD13DE0662818D079
:1023200067287ED138E00021112F01DB112000E069
:10233000781CCDE9000106A90EA8FFF7EDFCDDE948
:102340000F010E9A03910021009207F1010A0491F6
:102350004DE04FF000400097CDE9011006A90EA80E
:10236000FFF7DAFCDDE90F0203920E9B11990022C0
:10237000DDF80CA00093049211B9791C00EB010A5E
:10238000B7EB0A0004D4C0F1FF3007F1010A049052
:10239000AAEB0700019044E0012F00DA0127002199
:1023A000112F01DD112000E03846CDE9000106A91A
:1023B0000EA8FFF7B1FCDDE90F010E9A0391002191
:1023C00004910092BA4621070CD40399514500DAD2
:1023D0008A46BAF1010F05DD009AAAF10101515CAC
:1023E000302908D0B84202DA10F1040F06DA0121D0
:1023F000CDE9011015E0AAF10101E9E7002805DCAB
:10240000049901440491AAEB000102E0411C5145EA
:1024100000DD8A460499401A401C01904FF00040AC
:102420000290200704D40198504501DBCDF80480C8
:1024300000208DF84F0002980DF14F07B0F1004FCA
:1024400025D02B200E9002984FF0020800280CDABD
:10245000404202902D200E9007E00A210298FEF7DC
:102460002BF93031029007F8011DB8F10001A8F1F5
:102470000108F2DC02980028EFD1791E0E9808704E
:10248000307800F0200040F0450007F8020D12A857
:10249000C01B00F107081498007800B1012000EB80
:1024A0000A01019801EBE07105984144401A401E71
:1024B0000590E00306D45B462146179A059800F084
:1024C0005DF805441498007818B15A46179990475A
:1024D0006D1CE00324D55B462146179A059800F051
:1024E0004DF805441CE00498002807DBDDE90301F2
:1024F000884203DD0098405C179901E0179930206D
:102500005A469047049805F10105401C0490019833
:10251000401E019004D12E205A46179990476D1CF9
:10252000BAF10001AAF1010ADDDC05E017F8010BA0
:102530005A46179990476D1CB8F10001A8F101089F
:10254000F4DC5B462146179A0598ABE62D000000A7
:102550002B000000200000002DE9F041044600257A
:102560001E461746880404D405E039462020B047AB
:102570006D1C641EF9D52846BDE8F0812DE9F041B7
:10258000044600251E469046C80301D5302700E0CA
:102590002027880404D505E041463846B0476D1C25
:1025A000641EF9D52846BDE8F081000008B5012178
:1025B0000520FEF789FF0220ADF8000000208DF80D
:1025C000030069460148FEF7EAFA08BD0008014029
:1025D00000B585B0FFF7EAFF01214802FEF774FF5E
:1025E000002000908DF8040001208DF805004FF4C4
:1025F000602002900020039001208DF810006946B1
:102600001448FEF72FFA4FF44040FEF741FF052330
:10261000012211460F48FEF74DFA01210D48FEF741
:10262000F4F90C48FEF7A2FA00BF0A48FEF70FFAC9
:102630000028FAD10748FEF7A9FA00BF0548FEF7BF
:10264000EFF90028FAD101210248FEF794FA05B00B
:1026500000BD00000024014010B500F069F94FF4FE
:10266000E13001F09FFEFFF7B3FF00F0E3F800F068
:102670000BF800F045FE00F041FBFEF7CBFCFFF746
:102680007FF901F0A3FD10BD08B501210820FEF778
:102690001BFF40F20340ADF8000048208DF8030016
:1026A00069460248FEF77BFA08BD0000000C0140B5
:1026B0001CB54FF000090024A9E0002001F084FCC3
:1026C0008146B9F1000FF7D0142002F093F8B9F168
:1026D000010F06D0B9F1020F51D0B9F1030F70D13B
:1026E00070E001214A48FEF7E5FA002846D1A4B37C
:1026F0004848006802F0BCFA4748006860B1102002
:102700001F214FF6FF73CDE900104348882102686E
:102710004C2000F0F1FC12E002214048006800F07B
:102720004FF93D49086010201F214FF6FF73CDE996
:1027300000103948882102684C2000F0DDFC04229A
:10274000002135480068FEF7CFFB3348006801F0F0
:102750005DFF0020304908600BE0FFE72D4800686E
:1027600020B12C48006802F0ABF902E0012000F033
:102770007BF80CB9012000E00020044646E002216D
:102780002348FEF797FAD8B9D4B124480068FDF77A
:102790002AFF0746224A234BFDF7EAFD0546FDF7CF
:1027A00065FF1E49086008460068FDF71CFF0546E6
:1027B0001B4A1D4BFDF742FF02D21C481749086017
:1027C00024E022E04FF480611148FEF773FAD8B993
:1027D000D4B112480068FDF706FF0546104A114BB8
:1027E000FDF767FE0746FDF741FF0C490860084604
:1027F0000068FDF7F8FE0546094A0A4BFDF706FF9B
:1028000002D20B480549086000E000BF00BF54E752
:10281000000C0140B0000020A4000020D8000020DF
:102820009A9999999999B93F9999F93FCDCCCC3F0B
:10283000CDCCCC3D08B501210420FEF745FE042097
:10284000ADF8000010208DF8030003208DF8020081
:1028500069460348FEF7A3F900200249086008BD55
:1028600000080140880121421CB50446012C0AD110
:102870001848022100238022CDE9001016A11A4831
:1028800002F088FF24E0022C0AD11848032100231B
:102890008022CDE9001016A1194802F07BFF17E055
:1028A00054B91848012100238022CDE9001016A157
:1028B000184802F06FFF0BE0032C09D116480221E3
:1028C00000238022CDE9001014A1184802F062FF15
:1028D0001CBD0000B00000206C6364466C69636B33
:1028E00065725461736B00003D2C0008B400002039
:1028F0006C6564416C61726D5461736B0000000023
:102900006D320008AC000020627574746F6E546103
:10291000736B0000B1260008B80000207570646178
:1029200074654C63645461736B00000021420008BD
:1029300010B56FF00400FEF7EBFE0A4800680A4984
:10294000B0FBF1F0094908700846007800EB40013F
:10295000C1EBC0104FF6FF7101EAC00004490880C6
:1029600010BD0000DC00002000127A008E00002064
:10297000900000200146114A12884A434FF0E0239C
:102980005A6100229A611A46126942F001021A61E4
:1029900000BF4FF0E022106900F001021AB100F40C
:1029A0008032002AF5D04FF0E022126922F00102B5
:1029B0004FF0E0231A6100229A61704790000020D6
:1029C0002DE9F35F88460024A346012001F042FA76
:1029D0000546A946002606E03D490098FDF758FC4B
:1029E0000090701CC6B24645F6DB0098FDF7E7FD87
:1029F00007460A21B7FBF1F201FB127000B17F1C00
:102A000013E00A20B7FBF0F100FB1170303005F83D
:102A1000010B0A20B7FBF0F7601CC4B2444504D197
:102A20002E2005F8010B601CC4B2002FE9D1642FE1
:102A300001D3002F31D108F10100844205D13020AB
:102A400005F8010B601CC4B227E0012C12D100264E
:102A50000DE0302005F8010B601CC4B2444504D1E0
:102A60002E2005F8010B601CC4B2701CC6B2022EE9
:102A7000EFDB12E08CB900260DE0302005F8010BE9
:102A8000601CC4B2444504D12E2005F8010B601C23
:102A9000C4B2701CC6B2032EEFDB002028702046A3
:102AA00004EBD071C1F3470B00260CE019F806A027
:102AB000601E19F8000009F80600601E09F800A061
:102AC000C4B2701CC6B25E45F0DB4846BDE8FC9F50
:102AD0000000204170B504460D46E1B20548FFF7FD
:102AE000E0F800BF80210348FFF70EF80028F9D076
:102AF000204670BD003801402DE9F047074600240C
:102B0000012001F0A7F9804646460CE00A20B7FBF9
:102B1000F0F100FB1170303008F8010B0A20B7FB10
:102B2000F0F7601CC4B2002FF0D1002088F800003C
:102B3000204604EBD071C1F3470900250AE016F8DE
:102B400005A0601E305C7055601E06F800A0C4B27F
:102B5000681CC5B24D45F2DB3046BDE8F0872DE973
:102B6000F04107460C4615461E462A2000F062FB3F
:102B7000384600F071FB284600F06EFB2B2000F079
:102B800059FB204600F068FB304600F065FB2C2026
:102B900000F050FBBDE8F08110B5044614B1012CE3
:102BA00008D103E004A0FFF797F803E009A0FFF7BE
:102BB00093F800BF00BF10BD53504920776972746D
:102BC00065732062797465732074696D656F7574BF
:102BD000210A000053504920726563696576657368
:102BE0002062797465732074696D656F7574210A4C
:102BF000000000002DE9F04704460D4616461F462A
:102C0000DDF820A03B46324629462046FFF7A7FFC5
:102C1000A8460EE0A14606E0504600F01DFB09F173
:102C200001001FFA80F9B145F6DB08F101001FFA37
:102C300080F8B845EEDBBDE8F08700001CB531E058
:102C4000022119480068FFF7BBFE184908601020F0
:102C50001F214FF6FF73CDE9001014488821026848
:102C60004C2000F049FA4FF4967001F0C3FD10209B
:102C70004FF4FC614FF6FF73CDE900100B4888213B
:102C800002684C2000F038FA4FF4967001F0B2FD63
:102C90000648006830B10548006801F0B7FC002024
:102CA00002490860CCE70000D8000020A400002002
:102CB00008B501210820FEF707FC4FF46070ADF85D
:102CC000000010208DF8030003208DF802006946F3
:102CD0000748FDF764FF0020064908600120064907
:102CE000C1F8A001002003490831086008BD0000B8
:102CF000000C01409C8121420080214210B5FFF769
:102D0000D7FF00F031FA00207A4908606420FFF70D
:102D100031FE01207849C1F89C016420FFF72AFEAA
:102D200001207449083108606420FFF723FE112058
:102D300000F080FA7820FFF71DFEB12000F07AFA4B
:102D4000052000F065FA3C2000F062FA3C2000F01B
:102D50005FFAB22000F06EFA052000F059FA3C202C
:102D600000F056FA3C2000F053FAB32000F062FA6B
:102D7000052000F04DFA3C2000F04AFA3C2000F01B
:102D800047FA052000F044FA3C2000F041FA3C20CC
:102D900000F03EFAB42000F04DFA032000F038FABB
:102DA000C02000F047FA282000F032FA082000F096
:102DB0002FFA042000F02CFAC12000F03BFAC020CA
:102DC00000F026FAC22000F035FA0D2000F020FABB
:102DD000002000F01DFAC32000F02CFA8D2000F036
:102DE00017FA2A2000F014FAC42000F023FA8D20EC
:102DF00000F00EFAEE2000F00BFAC52000F01AFAEF
:102E00001A2000F005FA362000F014FAC02000F075
:102E1000FFF9E02000F00EFA042000F0F9F922207A
:102E200000F0F6F9072000F0F3F90A2000F0F0F9BD
:102E30002E2000F0EDF9302000F0EAF9252000F016
:102E4000E7F92A2000F0E4F9282000F0E1F9262033
:102E500000F0DEF92E2000F0DBF93A2000F0D8F97E
:102E6000002000F0D5F9012000F0D2F9032000F095
:102E7000CFF9132000F0CCF9E12000F0DBF90420B9
:102E800000F0C6F9162000F0C3F9062000F0C0F9E2
:102E90000D2000F0BDF92D2000F0BAF9262000F039
:102EA000B7F9232000F0B4F9272000F0B1F927206A
:102EB00000F0AEF9252000F0ABF92D2000F0A8F9C4
:102EC0003B2000F0A5F9002000F0A2F9012000F05D
:102ED0009FF9042000F09CF9132000F099F93A20A2
:102EE00000F0A8F9052000F093F9292000F0A2F9DC
:102EF00010BD00009C812142008021422DE9FC5F31
:102F000081468A4616469B460D9F384607EBD07190
:102F1000C1F347042046E21704EB5272D210214657
:102F2000E31704EB5373DB10A4EBC3030BB10123D2
:102F300000E000231A447A43D2B20192A6F12000A5
:102F4000C6B20AEB0700401E83B209EB0400401E24
:102F500082B251464846FFF702FE002540E00C2FA2
:102F600006D0102F0CD0182F10D0202F1CD115E018
:102F700006EB46001D4901EB8000405D009015E026
:102F80001B4800EB0610405D00900FE006EB46008A
:102F9000184901EB0010405D009007E0164800EB77
:102FA0008610405D009001E0BDE8FC9F00BF4FF03F
:102FB000000810E0012000FA08F00099084018B15C
:102FC000584600F049F902E00C9800F045F908F184
:102FD000010000F0FF08B8F1080FEBDB681CC5B278
:102FE00001988542BBDB00BFDEE70000705D000892
:102FF000E4610008D4670008A47900082DE9FF4FB8
:1030000083B082468B461746119D00200190002612
:103010000090002467E0204604EBD0714910A4EB37
:103020004101203106EB0612324B03EB4202515CA8
:103030003A57D14203D10098401CC0B20090601CA6
:10304000C4B2204604EBD0714910A4EB4101002921
:1030500049D1009802283ED10BEB0500401E83B2F7
:103060000AEB0500401E82B259465046FFF777FD35
:103070004FF0000829E0102D08D106EB06101D497D
:1030800001EB400010F80800029002E007B0BDE834
:10309000F08F00BF4FF0000910E0012000FA09F0A6
:1030A0000299084018B1069800F0D6F802E010988E
:1030B00000F0D2F809F1010000F0FF09B9F1080FA2
:1030C000EBDB08F1010000F0FF08B8EB450FD2DBA5
:1030D0000194002604E0701CC6B20E2E00DD05E04F
:1030E000019C00200090385D002894D100BF00BFF3
:1030F000CCE70000649100082DE9FE4306468846AF
:1031000014469946DDE90A7500208DF80A0026E08C
:1031100094F9000000280FDDCDE9007514F8012BAB
:103120004B4641463046FFF7E9FE284605EBD07195
:1031300006EB61018EB212E0002004E014F8011BDE
:1031400002AA1154401C0228F8DB4B4602AA414651
:103150003046CDE90075FFF751FF701986B220782F
:103160000028D5D1BDE8FE8300B587B001218803D2
:10317000FEF79AF901210820FEF7A6F94FF48050D6
:10318000ADF8040010208DF8070003208DF806002C
:1031900001A91C48FDF703FD01201B4908604FF4FD
:1031A0002040ADF8040018208DF8070003208DF8AA
:1031B000060001A91348FDF7F2FC0020ADF8080055
:1031C0004FF48270ADF80A000020ADF80C00ADF8A5
:1031D0000E00ADF810004FF40070ADF812000020A2
:1031E000ADF81400ADF816000720ADF8180002A9DC
:1031F0000648FEF7FAF901210448FEF7DFF907B0A7
:1032000000BD0000000C0140B081214200380040A8
:1032100010B50446002005490860204600F02CFF48
:1032200001200349C1F8B00110BD0000B081214266
:103230000080214210B50446002005490860204660
:10324000FFF7E6FF01200349C1F8A00110BD00000F
:10325000A08121420080214210B504462012FFF7D0
:10326000D7FFE0B2FFF7D4FF10BD000008B53BE088
:1032700000201E4908601D4928310860091F0860A8
:10328000401E01231A46194600901948006801F0B3
:1032900053FE044604F0010030B31EE013480068FA
:1032A000012802D001201149086001200F49243172
:1032B000086000200F49C1F8B0014FF4967001F08A
:1032C00099FA002009492431086001200949C1F810
:1032D000B0014FF4967001F08DFA07480168074875
:1032E0000068FDF7DFF9D9D3C2E700008801214269
:1032F000C000002000002142D8000020D0000020A3
:1033000008B501210420FEF7DFF84FF4C050ADF8F6
:10331000000003208DF8020010208DF8030069469C
:103320000148FDF73CFC08BD00080140FFF794F997
:1033300000BFFEE70146012004E000EB80025000E0
:103340004A1ED1B20029F8D1704700002DE9F041A2
:1033500005460E461C4807681C480068001D01F021
:1033600084F850B91948006890F82C100120884062
:1033700017490968814316480160681C38B936B19D
:1033800012480168091D134801F0BCF81AE07C19C5
:103390000E4800684460BC4207D20C480168091D11
:1033A0000D48006801F094F80CE008480168091D18
:1033B0000A48006801F08CF809480068844201D28C
:1033C00007480460BDE8F0812800002014000020B8
:1033D0002C000020100400201C00002018000020F9
:1033E0004400002010B5044601F098F82348006816
:1033F000401C224908602248006840B92048046007
:103400000846006801280DD100F012FA0AE01D48B4
:10341000006838B91A480068C06AE16A884201D871
:103420001748046018480068401C1749086094F861
:103430002C10012088401549096808431349086089
:10344000E16A01EB8101124A02EB8100211D01F0CA
:1034500059F801F0A5F80B48006868B10848006801
:10346000C06AE16A884207D24FF08050094908607B
:10347000BFF34F8FBFF36F8F10BD000024000020FB
:103480001400002030000020400000202C0000200C
:103490004001002004ED00E010B501F03FF81048B5
:1034A0000068D0B90F4801F003F80F4801F000F8A8
:1034B0000C480E4908600C480D49086000220C2198
:1034C0000A2001F051FE064908600846006820B154
:1034D00008A10348006801F051F901F061F810BD3E
:1034E0005800002024040020380400205000002050
:1034F00054000020546D72510000000070B523E0AC
:1035000001F038FC1348006808B9012000E00020F1
:10351000054602F0F5FABDB901F000F80D48C068A3
:10352000C468201D00F0A1FF0B480068401E0A4936
:1035300008600A480068401E0849086001F030F839
:10354000204600F057F800BF044800680028D7D193
:1035500070BD0000FC03002024000020200000209B
:1035600070B504460D46206C70B1216CE0680844CB
:10357000E0606168E068884201D32068E060284626
:10358000226CE168FCF71AFE70BD2DE9F04104469B
:103590000F4615464FF00008A66B206C28B37DB986
:1035A0003946226CA068FCF709FE216CA06808442B
:1035B000A060D4E90110884217D32068A06014E00D
:1035C0003946226CE068FCF7F9FD216CE068401A8E
:1035D000E0602168E068884203D2216C6068401A8C
:1035E000E060022D01D106B1761E701CA06340463A
:1035F000BDE8F08110B50446206B01F007F82046C5
:1036000001F004F810BD00000146084A1268126873
:103610000AB9012200E000220A600A6822B9034ABE
:103620001268D268106800E0002070475000002047
:1036300030B54FF42053174800F007042CB1C01DDB
:1036400020F00700134C041B1B1B0246124C226087
:103650000024114D6C60D018083820F007000F4C82
:10366000206000240D4D2D686C600C4D2D682C6081
:103670001146441A4C60094C24680C60084D4C6893
:103680002C60084D4C682C604FF00044064D2C60B7
:1036900030BD00004C040020640000206C000020BD
:1036A00074000020700000207800002000BFFFF7A9
:1036B00025FF064800680128F9D94FF080500449D9
:1036C0000860BFF34F8FBFF36F8FF0E7400100201A
:1036D00004ED00E02DE9F04106460D4617469846F8
:1036E000069C0DB9246000E02760E6632564012193
:1036F000204601F04DFEBDE8F08100002DE9FF5F9E
:1037000081460E469246DDE90E7B109CAAF101002F
:10371000216B01EB800828F0070808F0070008B9C2
:10372000012000E0002028B940F22B321AA120A08D
:10373000FEF7D2FA002507E0715D04F1340041552F
:10374000705D00B902E06D1C102DF5D300BF0021A3
:1037500043200155202F00D31F27E762201D00F0D2
:10376000B4FE04F1180000F0B0FE2461C7F120009F
:10377000A06164620020606484F8480049464046C5
:10378000039A00F00FFC2060BBF1000F01D0CBF8D2
:103790000040BDE8FF9F00002E2E5C46726565521A
:1037A000544F535C7372635C7461736B732E63006C
:1037B0004572726F723A25732C25640D0A00000061
:1037C0002DE9F04706460D4617469846DDE9089470
:1037D0000DB1012000E0002028B94FF4C67209A104
:1037E0000FA0FEF779FA5CB1FFF756FE2660A561DF
:1037F000E761C4F82080C4F82490201D00F065FE25
:10380000BDE8F0872E2E5C4672656552544F535CBE
:103810007372635C74696D6572732E6300000000DF
:103820004572726F723A25732C25640D0A000000F0
:1038300010B5002407E004EB84010F4A02EB81007D
:1038400000F036FE641C202CF5D30C4800F030FE4E
:103850000B4800F02DFE0B4800F02AFE0A4800F04D
:1038600027FE0A4800F024FE04480949086004487D
:103870000849086010BD000040010020C00300207E
:10388000D4030020E8030020FC03002010040020E3
:10389000180000201C00002010B50146164800E06A
:1038A000006803688B42FBD30246436813448B4293
:1038B00004D143684C682344436001460A464B6880
:1038C00013440468A34211D10C4C03682468A3423A
:1038D00008D04B680468646823444B6003681B6825
:1038E0000B6005E0054B1B680B6001E003680B6093
:1038F000884200D0016010BD640000206C000020F0
:103900002DE9F04104460D4616461F464FF00008CB
:1039100065602461B5420CD8F01BA169884202D3CE
:103920004FF0010811E0211D0948006800F0D0FDAA
:103930000BE0BE4204D2BD4202D34FF0010804E0C6
:10394000211D0448006800F0C3FD4046BDE8F08139
:10395000540000205000002070B5054600F0DEFD48
:10396000A86B08B9012400E0002400F019FE2046ED
:1039700070BD70B5054600F0D1FDA86BE96B8842BB
:1039800001D1012400E0002400F00AFE204670BDB1
:10399000F8B505460F4613480068C068C468201D86
:1039A00000F063FDE069012818D1A06941192B4698
:1039B0003A462046FFF7A4FF80B1002003462A467E
:1039C00001460090204602F081F906462EB94FF4D8
:1039D000027205A10BA0FEF77FF900BF2046616AC5
:1039E0008847F8BD500000202E2E5C467265655257
:1039F000544F535C7372635C74696D6572732E63AC
:103A0000000000004572726F723A25732C25640D18
:103A10000A00000070B586B060E0039800285DDB06
:103A2000059C606908B9012000E0002010B9201D44
:103A300000F01BFD02A800F0C9F8054603980A280B
:103A40004AD2DFE800F00905072C2E4506082D2F85
:103A500000BF00BF00BF00BF0498A26981180346E1
:103A60002A462046FFF74CFFC0B12046616A8847CE
:103A7000E069012812D1002000900498A169421841
:103A800000231946204602F021F906462EB940F2DD
:103A9000213218A11EA0FEF71FF900BF1DE000BFD4
:103AA0001BE000BF0498A061A06908B1012000E0FC
:103AB000002028B94FF44E720EA115A0FEF70CF9A4
:103AC000A06941192B462A462046FFF719FF04E05A
:103AD000204600F09BFD00E000BF00BF00231A4617
:103AE00003A90F48006801F07BFB002895D106B0C0
:103AF00070BD00002E2E5C4672656552544F535CBB
:103B00007372635C74696D6572732E6300000000EC
:103B10004572726F723A25732C25640D0A000000FD
:103B200058000020F8B505460C4601F023F9684618
:103B300000F04CF80646009820BB44B9B54206D8C0
:103B400001F0DEFF31462846FFF722FF1CE03CB1C2
:103B50000E480068006808B9012000E00020044613
:103B6000A91B22460A48006800F01EFE01F0C8FFAB
:103B700050B94FF0805007490860BFF34F8FBFF333
:103B80006F8F01E001F0BCFFF8BD00005400002081
:103B90005800002004ED00E00A490968096809B9E5
:103BA000012100E0002121B14FF0FF31064A1160F0
:103BB00006E004490968C968C868034A4168116099
:103BC00070470000180000204400002070B5044633
:103BD00001F020FE054607480068854204D200F047
:103BE0000BF80120206001E0002020600148056002
:103BF000284670BD600000202DE9F8432DE02148E3
:103C00000068C06805681F480068C068C468201D57
:103C100000F02BFC2046616A8847E06901281CD12E
:103C2000A0694619AE4207D966602461211D154876
:103C3000006800F04DFC10E0002003462A460146D3
:103C40000090204602F042F807462FB940F2923227
:103C50000DA114A0FEF740F800BF0A4800680068F4
:103C600008B9012000E000200028C8D00548D0F89D
:103C7000008010480068034908600E48C0F80080C2
:103C8000BDE8F883500000202E2E5C467265655218
:103C9000544F535C7372635C74696D6572732E6309
:103CA000000000004572726F723A25732C25640D76
:103CB0000A000000540000200B480068401C08B9AE
:103CC000012000E0002020B9F42208A111A0FEF795
:103CD00003F800BF502080F31188BFF34F8FBFF36C
:103CE0006F8F00BF00BFFEE77C0000202E2E5C46D9
:103CF00072656552544F535C706F72745C525644D7
:103D0000535C41524D5F434D335C706F72742E6350
:103D1000000000004572726F723A25732C25640D05
:103D20000A00000070B5054600262C462DB940F269
:103D300081620EA113A0FDF7CFFF1649606988428A
:103D400001D1012000E0002070B11349A06A88422F
:103D500001D1012000E0002030B9A06A08B901209B
:103D600000E0002000B10126304670BD2E2E5C46DA
:103D700072656552544F535C7372635C7461736B0C
:103D8000732E63004572726F723A25732C25640D91
:103D90000A00000010040020E803002010B50346CC
:103DA000002022B903EA010434B1012004E003EA4F
:103DB00001048C4200D1012010BD08B500BF684647
:103DC000FFF722FC044620460099FFF7ABFEFFF701
:103DD00021FEF4E770B5044600F0A0FB94F94550CD
:103DE00010E0606A08B9012000E0002038B904F151
:103DF000240001F0C7FD18B100F0C0FD00E003E0B1
:103E0000681E45B2002DECDC00BFFF2084F84500A1
:103E100000F0C6FB00F082FB94F9445010E02069EA
:103E200008B9012000E0002048B904F1100001F0B9
:103E3000A9FD08B100F0A2FD681E45B200E001E056
:103E4000002DECDC00BFFF2084F8440000F0A8FB4C
:103E500070BD00002DE9F04104464FF0000800F06D
:103E600089FF3E48006808B9FFF7E2FB3C4800685C
:103E7000204000285FD1A4B1083404F0070080B1CD
:103E800004F00700C0F10800044404F0070008B97A
:103E9000012000E0002020B9BF2232A13AA0FDF7A6
:103EA0001BFF002C47D03C480068844243D83B4E5F
:103EB0003046056801E02E462D686868A04202D2AF
:103EC00028680028F7D125480068854233D030683B
:103ED00000F10808286830606868001B102813D9B2
:103EE0002F1907F0070008B9012000E0002020B9D1
:103EF000EC221CA124A0FDF7EFFE6868001B78608F
:103F00006C603846FFF7C8FC234968680968081ADE
:103F1000214908600846006821490968884203D29F
:103F20001D4800681E4908600D4968680968084313
:103F300068600020286001F0E3FD08F0070008B980
:103F4000012000E0002028B94FF4967205A10EA0D0
:103F5000FDF7C2FE4046BDE8F08100006C00002085
:103F6000780000202E2E5C4672656552544F535CDB
:103F7000706F72745C4D656D4D616E675C686561F4
:103F8000705F342E630000004572726F723A2573C1
:103F90002C25640D0A000000700000206400002041
:103FA00074000020001F4FF080730360001F21F099
:103FB00001030360001F034B0360143802602038C4
:103FC00070470000B93C000810B504462848007846
:103FD00070B301212748FCF76DFE50B1022125483E
:103FE000FCF768FE28B14FF480612248FCF762FEBE
:103FF000F0B93CB91E48007808B9012000E0002063
:104000001B49087001211B48FCF754FE08B9012028
:1040100010BD02211748FCF74DFE08B90220F7E752
:104020004FF480611348FCF745FEF0B90320EFE739
:104030000F480078C8B901210E48FCF73BFE012863
:1040400013D102210B48FCF735FE01280DD1810266
:104050000848FCF72FFE012807D10548007808B969
:10406000012000E00020024908700020D0E7000095
:1040700092000020000C014070B504464FF6FF7519
:1040800007E0281EA5F101018DB202D1FEF784FDE3
:1040900070BD02210E48FDF79DFA0028F1D021469F
:1040A0000B48FDF7A0FA4FF6FF7508E0281EA5F1B2
:1040B00001018DB203D10120FEF76EFDE8E7012179
:1040C0000348FDF787FA0028F0D000BFE0E70000C2
:1040D0000038004038B5054603220021012001F0D8
:1040E00043F81649086000F0A3FE1549086015481A
:1040F00001231A464FF47A71009013A001F092FD4B
:10410000144908600846006858B101F083FB044672
:10411000002003462246012100900E48006801F06D
:10412000D5FD0020FEF7A0FB0320FEF79DFB02203B
:10413000FEF79AFB002000F099FB38BDBC00002080
:10414000C00000200542000874696D65724368650F
:10415000636B0000C40000202DE9FC5F04460D469F
:10416000002601272846FFF7E5F8804620E0207862
:104170002E281CD03846FCF71DFA01904046FCF76B
:1041800019FA83462178A1F13000FCF70AFA594662
:104190000090FCF77DF882460199FCF7ABF8814668
:1041A0003146FCF71DF8064607EB87004700641C04
:1041B00020780028DBD14046FCF7FCF981464946CF
:1041C0003046FCF797F80646BDE8FC9F1CB500F0AA
:1041D000A5F90748012100238022CDE9001005A19F
:1041E000074801F0D7FA00F0EBFC00F0D9F91CBD4C
:1041F000A800002073746172745461736B00000036
:10420000D540000870B50546012400231A4619461A
:104210000248006801F016F9044670BDBC00002099
:104220001CB500BF0024A14693E000235A1E194686
:104230004848006800F0D4FF02214748FCF7FEFB25
:104240000028F1D002214448FCF7DCFB4248FCF78F
:10425000F1FB0190FCF7AEF983464FF08B41FCF780
:1042600049F88246FCF7BFF905464FF066323B4BF2
:10427000FCF725F90746FCF7F9F939490860364893
:10428000FCF7D8FB8246FCF795F980464FF08B414E
:10429000FCF730F807463349FBF7FAFF06464FF0C4
:1042A0007E51FBF7F5FF0546FCF789F92E4908809A
:1042B0002E4801682A480068FCF7F4F904D201216D
:1042C0002B48006800F0C2FD28480068FCF78BF915
:1042D00005460E4622480068FCF785F907463A462F
:1042E0000B462148CDE90056018822A0FDF7F4FCD9
:1042F0001F2026235022162100903820FEF77AFC3A
:1043000019480088FEF7F8FB044610201F214FF6DD
:10431000FF732246CDE9001016213020FEF7ECFE97
:10432000204600F073F9002402210D480068FEF7D2
:1043300047FB814610201F214FF6FF734A46CDE907
:1043400000102E213020FEF7D7FE484600F05EF91F
:10435000A1466AE7BC0000200024014066660A40CE
:10436000D000002000401C46D4000020D8000020CF
:10437000C00000205B7B22636F6E223A25642C22F2
:10438000766F6C74616765223A252E32662C227432
:1043900068726573686F6C64223A252E32667D5DA3
:1043A0000000000010B586B00446012144F204006C
:1043B000FDF78AF84FF40070ADF8140003208DF873
:1043C000160018208DF8170005A91E48FCF7E7FB1A
:1043D0004FF48060ADF8140004208DF8170005A993
:1043E0001848FCF7DCFB01940020ADF80800ADF89C
:1043F0000A00ADF80C00ADF810000C20ADF80E006E
:1044000001A91148FDF7DCFB4FF4A060FDF736F879
:1044100025208DF8000003208DF801008DF80200A2
:1044200001208DF803006846FCF7F0FF012240F2FE
:1044300025510548FDF79FFB01210348FDF758FB77
:1044400006B010BD000801400038014070B50446B8
:104450000D4629462046FDF724FC00BF802120465A
:10446000FDF752FB0028F9D070BD01460A69D1E979
:1044700001309860D1E9010358605068884201D149
:1044800088685060002008611068401E1060106845
:104490007047000005490968886904490968C96AC4
:1044A000C1F12001014A1268916170471400002097
:1044B00000F1080141604FF0FF31816000F1080117
:1044C000C1600161002101607047002101617047F6
:1044D00010B502460B685C1C0CB9106907E002F1CC
:1044E000080000E04068446824689C42FAD94468A7
:1044F0004C604C68A160886041600A611468641C6B
:10450000146010BD42684A6093688B60936859607C
:104510009160086103685B1C0360704710B500BFC1
:10452000502080F31188BFF34F8FBFF36F8F00BF10
:104530000B480068401C0A490860084600680128CA
:104540000DD108480068C0B208B9012000E0002081
:1045500028B94FF4BD7204A10DA0FDF7BDFB10BD3D
:104560007C00002004ED00E02E2E5C467265655252
:10457000544F535C706F72745C525644535C41529A
:104580004D5F434D335C706F72742E63000000000A
:104590004572726F723A25732C25640D0A00000073
:1045A00010B50B48006828B940F2811209A113A088
:1045B000FDF792FB06480068401E05490860084662
:1045C000006820B9002080F3118800BF00BF10BD33
:1045D0007C0000202E2E5C4672656552544F535C61
:1045E000706F72745C525644535C41524D5F434D40
:1045F000335C706F72742E63000000004572726F3E
:10460000723A25732C25640D0A00000070B5064629
:104610003546002E35D0083D2C461A496068096899
:10462000084008B1012000E0002028B94FF4A07232
:1046300015A11EA0FDF750FB206808B9012000E07D
:10464000002028B940F241120FA118A0FDF744FB49
:104650000C4960680968084098B1206888B9094920
:10466000606809688843606000F084FB13496068F3
:1046700009680844114908602046FFF70DF901F068
:104680003FFA70BD780000202E2E5C4672656552A0
:10469000544F535C706F72745C4D656D4D616E6705
:1046A0005C686561705F342E630000004572726F54
:1046B000723A25732C25640D0A000000700000205A
:1046C000064800684FF47A71B0FBF1F0401E4FF0DD
:1046D000E02148610720086170470000DC000020ED
:1046E00070B5FBF755FD0546102D11D305F1E020FF
:1046F00090F8F04310480078844201DB012000E08C
:10470000002028B94FF42A720CA116A0FDF7E4FA94
:104710001848006800F4E06017490968884201D829
:10472000012000E0002028B94FF42E7203A10DA053
:10473000FDF7D2FA70BD0000800000202E2E5C46EE
:1047400072656552544F535C706F72745C5256447C
:10475000535C41524D5F434D335C706F72742E63F6
:10476000000000004572726F723A25732C25640DAB
:104770000A0000000CED00E084000020024600204A
:104780000BE0084B53F8303033B9064B43F8301088
:1047900003EBC0035A6002E0401C0A28F1D300BFBB
:1047A00070470000F00000202DE9F04105460E465C
:1047B00017462C46FFF7B2FE94F94400401C10B98E
:1047C000002084F8440094F94500401C10B90020F2
:1047D00084F84500FFF7E4FEA06B28B93A4631465D
:1047E00004F1240000F0FCF82046FFF7F3FABDE8DE
:1047F000F081000070B504460025ACB10F48006898
:1048000008B9012000E0002028B940F2CF420CA1F5
:1048100011A0FDF761FA00F0ADFA00212046FEF785
:1048200095FD01F06DF905463DB94FF080500E49F8
:104830000860BFF34F8FBFF36F8F70BD4C00002037
:104840002E2E5C4672656552544F535C7372635CE6
:104850007461736B732E63004572726F723A2573C5
:104860002C25640D0A00000004ED00E070B505463B
:10487000FFF754FE15B92D48006800E028460446AD
:10488000201DFFF7F2FD78B9E06A00EB80002849AF
:1048900051F8200040B994F82C1001208840254997
:1048A0000968814323480160A06A18B104F1180027
:1048B000FFF7DBFD20480068401C1F4908601B48CB
:1048C0000068844209D1211D1C48FFF71BFE1C48CB
:1048D0000068401C1A49086009E01A480068401E38
:1048E000184908602046FEF785FEFFF755F9FFF7E7
:1048F00057FE15480068C0B10C480068844214D1C6
:104900001248006808B9012000E0002028B940F2F0
:1049100065420FA114A0FDF7DFF94FF08050164952
:104920000860BFF34F8FBFF36F8F70BD140000207E
:10493000400100202C00002040000020FC0300204B
:104940002000002024000020300000204C00002027
:104950002E2E5C4672656552544F535C7372635CD5
:104960007461736B732E63004572726F723A2573B4
:104970002C25640D0A00000004ED00E0012001492F
:10498000086070473800002070B504460D462CB909
:1049900040F6063207A10DA0FDF79EF90F48016809
:1049A00018312046FFF794FD01212846FEF7CEFC82
:1049B00070BD00002E2E5C4672656552544F535CEC
:1049C0007372635C7461736B732E63004572726FF4
:1049D000723A25732C25640D0A0000001400002093
:1049E00070B505460E4614462DB940F6313209A180
:1049F0000EA0FDF771F91148016818312846FFF73C
:104A000081FD0CB14FF0FF3621463046FEF79EFC8B
:104A100070BD00002E2E5C4672656552544F535C8B
:104A20007372635C7461736B732E63004572726F93
:104A3000723A25732C25640D0A0000001400002032
:104A400070B504460D4616462CB940F6173210A133
:104A500015A0FDF741F91848006808B1012000E0F1
:104A6000002028B940F61B3209A10FA0FDF734F948
:104A700045F0004011490968886110480168183103
:104A80002046FFF73FFD01213046FEF75FFC70BD79
:104A90002E2E5C4672656552544F535C7372635C94
:104AA0007461736B732E63004572726F723A257373
:104AB0002C25640D0A0000004C000020140000208A
:104AC00070B505462C462DB940F2AB621AA120A064
:104AD000FDF702F974B32248006884422AD0FFF738
:104AE0001DFD2046FFF71EF910B3201DFFF7BDFC8A
:104AF00094F82C10012088401A4909680843194984
:104B00000860E16A01EB8101174A02EB8100211D77
:104B1000FFF7F8FC1249E06A0968C96A884207D3BE
:104B20004FF0805011490860BFF34F8FBFF36F8F74
:104B3000FFF736FD70BD00002E2E5C467265655293
:104B4000544F535C7372635C7461736B732E6300B8
:104B50004572726F723A25732C25640D0A000000AD
:104B6000140000202C0000204001002004ED00E093
:104B700010B504462CB940F6C13205A10AA0FDF7D4
:104B8000ABF80D48006820600C480068606010BDFC
:104B90002E2E5C4672656552544F535C7372635C93
:104BA0007461736B732E63004572726F723A257372
:104BB0002C25640D0A0000003C0000202800002085
:104BC0001CB51A4800210B468022CDE9001018A11F
:104BD000194800F0DFFD0446012C02D101F03AF83B
:104BE0000446012C15D100BF502080F31188BFF37B
:104BF0004F8FBFF36F8F00BF4FF0FF300F4908603A
:104C000001200F49086000200E49086000F042FAB8
:104C10000BE0601C08B1012000E0002028B940F240
:104C2000847209A10EA0FDF757F81CBD48000020B2
:104C300049444C4500000000AD3600084400002007
:104C400030000020280000202E2E5C467265655240
:104C5000544F535C7372635C7461736B732E6300A7
:104C60004572726F723A25732C25640D0A0000009C
:104C700070B50546FFF752FC15B92C48006800E0F6
:104C800028460446201DFFF7F0FB78B9E06A00EBE8
:104C90008000274951F8200040B994F82C100120D9
:104CA000884024490968814322480160A06A18B1FC
:104CB00004F11800FFF7D9FB211D1F48FFF722FC64
:104CC000FFF76EFC1D48006828B1FFF727FCFEF7D0
:104CD00063FFFFF765FC15480068844224D117483C
:104CE0000068A8B11648006808B9012000E000205B
:104CF00028B940F2576213A118A0FCF7EDFF4FF05E
:104D000080501A490860BFF34F8FBFF36F8F0BE0DD
:104D10000948006816490968884203D10020034900
:104D2000086001E000F02EF870BD000014000020C3
:104D3000400100202C000020100400203000002042
:104D40004C0000202E2E5C4672656552544F535C19
:104D50007372635C7461736B732E63004572726F60
:104D6000723A25732C25640D0A00000004ED00E062
:104D70002400002002480068401C01490860704778
:104D80004C00002010B51B48006818B101201A49DA
:104D900008602DE000201849086018480068B0FA43
:104DA00080F0C0F11F0404EB8400154951F8200085
:104DB00008B1012000E0002028B940F6F62211A138
:104DC00016A0FCF789FF04EB84010D4A02EB810079
:104DD00041684968416000F1080142688A4202D195
:104DE0004168496841604168C968104A116000BF64
:104DF00010BD00004C000020380000202C000020D6
:104E0000400100202E2E5C4672656552544F535C63
:104E10007372635C7461736B732E63004572726F9F
:104E2000723A25732C25640D0A000000140000203E
:104E300010B51820FFF70EF8044624B100202060BA
:104E4000201DFFF735FB204610BD00002DE9FE4F69
:104E500007468846002001903C4600902FB940F25A
:104E60001D2229A130A0FCF737FF08F07F4008B9C8
:104E7000012000E0002028B940F21E2222A12AA031
:104E8000FCF72AFF04F1040909F108000290FFF77A
:104E900071FFD9F80C60206840EA0800206026E025
:104EA000D6F804B035680020009005F07F4A25F060
:104EB0007F450AF0806028B92068284040B1012071
:104EC000009005E020682840A84201D10120009010
:104ED000009858B10AF0807010B1019828430190F1
:104EE000206840F00071304600F0A8FD5E46029850
:104EF0008642D5D1206801998843206000F000FEE9
:104F00002068BDE8FE8F00002E2E5C46726565525B
:104F1000544F535C7372635C6576656E745F677241
:104F20006F7570732E6300004572726F723A25734D
:104F30002C25640D0A0000002DE9FF4F83B0814647
:104F40000D461746DDF840804C464FF0000A002021
:104F50000190B9F1000F05D140F24D1240A148A0D7
:104F6000FCF7BAFE05F07F4008B9012000E0002000
:104F700028B94FF4A7723AA141A0FCF7ADFE0DB1DC
:104F8000012000E0002028B940F24F1234A13CA0DB
:104F9000FCF7A2FE00F02EFC10B9B8F1000F01D111
:104FA000012000E0002028B94FF4A9722CA134A000
:104FB000FCF792FEFFF7DEFE206800902946069A75
:104FC0000098FEF7EBFE0290029838B1009E4FF079
:104FD0000008B7B12068A843206012E0B8F1000FC4
:104FE00001D1009E0DE00FB14AF0807A069808B119
:104FF0004AF0806A45EA0A014246201DFFF720FD7B
:10500000002600F07DFD8346B8F1000F23D0BBF1F0
:10501000000F07D14FF080501D490860BFF34F8F3C
:10502000BFF36F8FFFF736FA064606F0007080B9BF
:10503000FFF774FA266829463046069AFEF7AEFE58
:1050400018B117B12068A8432060FFF7A9FA002023
:10505000019026F07F46304607B0BDE8F08F000093
:105060002E2E5C4672656552544F535C7372635CBE
:105070006576656E745F67726F7570732E6300007E
:105080004572726F723A25732C25640D0A00000078
:1050900004ED00E01CB52248014609780191FF218A
:1050A000024611700146097800919DF8001001F048
:1050B00050011C4A117007211B4A116009E01A496E
:1050C0000968491E184A11609DF800104906090E2A
:1050D00000919DF8001001F080018029EFD0124965
:1050E00009680902104A11601146098801F4E0615B
:1050F00011600B4A019911700C48006840F470006F
:105100000A4908600846006840F070400860FFF7F0
:10511000D7FA002006490860FBF704F800201CBD00
:1051200000E400E0800000208400002020ED00E08A
:105130007C00002010B500BF502080F31188BFF321
:105140004F8FBFF36F8F00BF00F06AFB18B14FF0B5
:1051500080500449086000BF002080F3118800BF20
:1051600010BD000004ED00E02DE9F84305460E46B1
:1051700090460DB1012000E0002028B94FF4C47220
:105180000DA113A0FCF7A8FD0EB9002701E005FB57
:1051900006F707F14800FEF75DFE044644B104F14E
:1051A000480943464A46314628460094FEF792FA9B
:1051B0002046BDE8F88300002E2E5C4672656552DD
:1051C000544F535C7372635C71756575652E630033
:1051D0004572726F723A25732C25640D0A00000027
:1051E0002DE9FF4782B005460E461F464FF0000AE4
:1051F0002C462CB940F2DC425AA160A0FCF76CFDB1
:105200000EB9206C08B9012000E0002028B940F256
:10521000DD4254A159A0FCF75FFD00F0EBFA08B99C
:10522000049808B9012000E0002028B94FF49C62DE
:105230004CA152A0FCF750FD00BFFFF76FF9D4F866
:105240003890B9F1000F38D0D4F80C8031462046A0
:10525000FEF786F9B7B9A9F10100A063206908B982
:10526000012000E0002010BB04F1100000F08AFBD8
:10527000E8B14FF0805045490860BFF34F8FBFF34E
:105280006F8F14E0C4F80C80606A08B9012000E058
:10529000002060B904F1240000F074FB38B14FF035
:1052A00080503A490860BFF34F8FBFF36F8FFFF70D
:1052B00077F9012006B0BDE8F087049818B9FFF728
:1052C0006FF90020F6E7BAF1000F04D16846FFF746
:1052D0004FFC4FF0010AFFF763F9FFF74BFDFFF7B3
:1052E0001DF994F94400401C10B9002084F84400D2
:1052F00094F94500401C10B9002084F84500FFF7E0
:105300004FF904A9684600F0F3F9F0B92046FEF71A
:1053100023FBA0B104F124000499FFF735FB2046DC
:10532000FEF758FD00F0ECFB002886D14FF08050CE
:1053300016490860BFF34F8FBFF36F8F7DE720469C
:10534000FEF748FD00F0DCFB77E72046FEF742FD64
:1053500000F0D6FB2046FEF7FFFA0028EED0002032
:10536000A8E700002E2E5C4672656552544F535CD0
:105370007372635C71756575652E63004572726F3B
:10538000723A25732C25640D0A00000004ED00E03C
:1053900070B505460E462C462CB940F21B121EA1D4
:1053A00023A0FCF799FCFFF7B9F8D4E90F122068A5
:1053B00001FB020060600020A0632068A060E06B39
:1053C000401E226C216800FB0210E060FF2084F880
:1053D000440084F845009EB9206908B9012000E026
:1053E0000020A8B904F1100000F0CCFA80B14FF011
:1053F000805013490860BFF34F8FBFF36F8F07E0F2
:1054000004F11000FFF754F804F12400FFF750F8FE
:10541000FFF7C6F8012070BD2E2E5C4672656552FE
:10542000544F535C7372635C71756575652E6300D0
:105430004572726F723A25732C25640D0A000000C4
:1054400004ED00E02DE9FF4383B0064688461D4683
:105450004FF0000934462CB940F2D92258A15EA081
:10546000FCF73AFCB8F1000F01D1206C08B901201B
:1054700000E0002028B940F2DA2251A156A0FCF742
:105480002BFC022D02D1E06B012801D1012000E0AC
:10549000002028B940F2DB2249A14FA0FCF71CFCF8
:1054A00000F0A8F908B9059808B9012000E000202B
:1054B00028B940F2DE2242A147A0FCF70DFC00BF54
:1054C000FFF72CF8A06BE16B884201D3022D28D1A5
:1054D0002A4641462046FEF758F80746606A08B952
:1054E000012000E0002068B904F1240000F04AFA2D
:1054F00088B14FF080503C490860BFF34F8FBFF335
:105500006F8F08E03FB14FF0805037490860BFF31C
:105510004F8FBFF36F8FFFF743F8012007B0BDE84F
:10552000F083059818B9FFF73BF80020F6E7B9F1CA
:10553000000F04D101A8FFF71BFB4FF00109FFF793
:105540002FF8FFF717FCFEF7E9FF94F94400401C21
:1055500010B9002084F8440094F94500401C10B9AB
:10556000002084F84500FFF71BF805A901A800F00A
:10557000BFF8F0B92046FEF7FCF9A0B104F1100025
:105580000599FFF701FA2046FEF724FC00F0B8FA6F
:10559000002895D14FF0805013490860BFF34F8F1A
:1055A000BFF36F8F8CE72046FEF714FC00F0A8FADB
:1055B00086E72046FEF70EFC00F0A2FA0020ADE7D9
:1055C0002E2E5C4672656552544F535C7372635C59
:1055D00071756575652E63004572726F723A257339
:1055E0002C25640D0A00000004ED00E02DE9F05FB9
:1055F00007468A4690461E463C462CB940F29F32EA
:1056000031A137A0FCF768FBBAF1000F01D1206C83
:1056100008B9012000E0002028B94FF468722AA1DF
:105620002FA0FCF759FB022E02D1E06B012801D11B
:10563000012000E0002028B940F2A13222A128A0D8
:10564000FCF74AFBFFF74CF800BF5021EFF3118045
:1056500081F31188BFF34F8FBFF36F8F00BF0546F3
:10566000A06BE16B884201D3022E23D194F945B09F
:10567000324651462046FDF788FF0BF1010088B9FC
:10568000606A08B9012000E0002080B904F124001C
:1056900000F078F958B1B8F1000F08D00120C8F82F
:1056A000000004E00BF1010040B284F845004FF027
:1056B000010901E04FF0000900BF85F3118800BF28
:1056C0004846BDE8F09F00002E2E5C46726565528C
:1056D000544F535C7372635C71756575652E63001E
:1056E0004572726F723A25732C25640D0A00000012
:1056F0002DE9F04104460D462CB940F6CB3219A1F4
:105700001EA0FCF7E9FA2DB940F6CC3215A11BA07A
:10571000FCF7E2FAFEF702FF1C4807682868401C05
:1057200008B9002619E01A4920680968884204D09F
:105730006068B84201D801260FE06068381A29680D
:10574000884209D228686168791A401A2860204680
:10575000FFF70EFA002600E00126FEF721FF304693
:10576000BDE8F0812E2E5C4672656552544F535C45
:105770007372635C7461736B732E63004572726F36
:10578000723A25732C25640D0A00000028000020C1
:105790003C0000202DE9FF4F85B080468946174622
:1057A000DDE912ABB800FEF755FB064656B14C20BA
:1057B000FEF750FB04460CB1266304E03046FEF7CA
:1057C00025FF00E000247CB10020CDE900ABCDE94D
:1057D00002403A4649464046089BFDF78FFF204667
:1057E000FDF700FE012501E04FF0FF35284609B026
:1057F000BDE8F08F0549096809B9012005E00449B1
:10580000096809B9022000E000207047300000203C
:105810004C00002001490868704700002800002063
:105820002DE9F0414FF0000841480068002872D18E
:1058300040480068451C3F480560EDB93E48006897
:10584000006808B9012000E0002028B940F6D9120C
:105850003AA140A0FCF740FA374807684148006881
:10586000354908603F4807603F480068401C3E4992
:105870000860FEF791F900BF3C48006885423CD3C0
:1058800000BF2D480068006808B9012000E0002032
:1058900020B14FF0FF30354908602DE02648006800
:1058A000C068C4686668B54202D23048066023E02A
:1058B000201DFEF7DAFDA06A18B104F11800FEF70A
:1058C000D4FD94F82C100120884029490968084328
:1058D00027490860E16A01EB8101264A02EB810059
:1058E000211DFEF70FFE2449E06A0968C96A884253
:1058F000C7D34FF00108C4E700BF1F480068C06A63
:1059000000EB80001B4951F82000012801D94FF01D
:10591000010805E0FFE719480068401C17490860C6
:105920001748006808B14FF001084046BDE8F08113
:105930004C00002028000020180000202E2E5C467D
:1059400072656552544F535C7372635C7461736B20
:10595000732E63004572726F723A25732C25640DA5
:105960000A0000001C0000203C0000204400002031
:105970002C000020400100201400002034000020F2
:105980003800002070B50646F068C4682CB940F6AF
:1059900061321AA11FA0FCF79FF904F11800FEF76D
:1059A00064FD20480068A8B9201DFEF75EFD94F84C
:1059B0002C10012088401C49096808431A490860D6
:1059C000E16A01EB8101194A02EB8100211DFEF71A
:1059D00099FD04E004F118011548FEF793FD1549FF
:1059E000E06A0968C96A884204D901250120124980
:1059F000086000E00025284670BD00002E2E5C46A1
:105A000072656552544F535C7372635C7461736B5F
:105A1000732E63004572726F723A25732C25640DE4
:105A20000A0000004C0000202C0000204001002053
:105A3000E803002014000020380000202DE9F04188
:105A400005460F461F48006808B1012000E000200D
:105A500028B940F699321CA121A0FCF73DF947F086
:105A600000402860EC682CB940F6A13216A11CA0B9
:105A7000FCF732F92846FEF7F8FC201DFEF7F5FC8E
:105A800094F82C10012088401949096808431849E6
:105A90000860E16A01EB8101164A02EB8100211DD9
:105AA000FEF730FD1449E06A0968C96A884204D9E2
:105AB000012601201149086000E000263046BDE8BB
:105AC000F08100004C0000202E2E5C46726565526D
:105AD000544F535C7372635C7461736B732E630019
